:020000040000fa
:080000000002040000000000f2
:020000040000fa
:100400006fa620000e7f24000e018800000000006f
:100410000c00070040262200010020001f000700fa
:10042000000020000000e000020032000000020096
:1004300000000000cc210200000000000040da00b3
:100440000000fe004440a900201420000000e0004d
:100450000300320000002000a00188004440a800f2
:1004600000000600f03fb1000180b1000600350039
:10047000ee03090000000000403fb1000180b10020
:10048000fbff3d001000b000203fb000020035002f
:1004900000800900000000000000060091018800b3
:1004a000800078000000eb0015003700e28040007b
:1004b00032a0b4009101ba00e280400032a0b40042
:1004c0009102ba00e280400032a0b4000002eb00ca
:1004d000472bde00f507b200602ce10004003a0073
:1004e0000059eb008301e900fdff3e0004003700e6
:1004f0006128e100010032000082eb0004000700e7
:100500001101ba000200e000e8ff3a000000060016
:100510003159ba008301e9000c0032002159ba00b8
:100520008301e900080032000400e00003003a0003
:10053000e280400032a0b400f5ff370011d9ba00c4
:100540008301e900faff3a008100e800e180400001
:1005500032a0b400000006000040da000000fe00f7
:10056000889fbe008a9fbe008c1f78000205be00d7
:100570000004be000006eb00e00f5000e08f5800c2
:10058000e00f5900e08f590007003d006000b800ff
:100590006011b80008045000898458000a05590009
:1005a0008b8559001c002000e00f5200e08f5a009c
:1005b000e00f5b00e08f5b0002003d000f000700d2
:1005c0000c00a2000800be000a01be001d010700c9
:1005d0000203be000002be000c00e0000100320079
:1005e000060007000400be000601be004f067800aa
:1005f0004f05be004f04be00000006006000b800ba
:100600006011b800040250008582580006035900aa
:100610008783590000000600881f780000047800d6
:100620005001be004000be0004004000858048002c
:100630000601490087814900009cbe000294be006b
:100640000400e1000588e1000690e1000798e10060
:1006500002003100680044001008e8004f047800f0
:1006600000000600f4874700889fbe008a9fbe00f6
:100670008c9fbe008e1f78000205be000004be00e5
:10068000d4b79f00e5b79f00f6b79f0087bf9f00d4
:100690000000eb00c0b79f00b0b79f00a0b79f005d
:1006a00090b79f0080b79f000d042000bfb0970057
:1006b0004fb09700000140000000e0000f003d0037
:1006c0004f08de0000007100c0b79f009e000700c9
:1006d00001003d0012002000a100070001003d00c4
:1006e00012002000a6000700b1000700b6000700b6
:1006f0000f004000c8ff0700220037004f08de004f
:1007000000067100ccb79f008f00070001003d007c
:10071000120020009200070001003d00120020009e
:1007200097000700a20007000fb297009fb2970042
:100730002fb39700bfb39700a90007000000520035
:1007400081805a0002015b0083815b0080b79f00bb
:1007500091b79f00a2b79f00b3b79f000007eb00bf
:100760009f0007000020e10001a8e10002b0e100c5
:1007700003b8e100010031001e0020000e00560009
:10078000c0b79f004fb297000400e000070035009b
:1007900010002000010020006011b8000804700063
:1007a000898470000a0571008b8571008d06e9004f
:1007b000beff3a000400e00003003d008200070095
:1007c0000f00400094ff07004fa897000000e000d2
:1007d00004003a000fb497009fb497002fb597001c
:1007e000bfb59700940007004f0778004f06be0082
:1007f0004f05be004f04be004f01b10000000600cf
:10080000881f780018002000881f780095ff0700d7
:100810008f87e9004f04780000000600801feb007e
:1008200090ff07008f87e90000000600889fbe0048
:100830008a9fbe008c1f78006e00070007003d00f5
:1008400073000700e00f5b00e08f5b0007003d00d6
:10085000320007000006eb000400370034000700f8
:1008600002003d002a0007001c0020007200070063
:10087000e3ff07000203be000002be000c00e00020
:1008800001003200220007000400be000601be0085
:100890004f0678004f05be004f04be000000060062
:1008a000889fbe008a9fbe008c1f78005100070001
:1008b00005003d0056000700e00f5b00e08f5b0085
:1008c00006003d00040037001900070003003d004a
:1008d0006000b8006011b800100007005600070063
:1008e000ceff07000203be000002be000c00e000c5
:1008f00001003200060007000400be000601be0031
:100900004f0678004f05be004f04be0000000600f1
:100910006000b8006011b800000037000402500009
:10092000858258000603590087835900000006009d
:100930000006eb00e00f5200e08f5a00e00f5b0072
:10094000e08f5b00000006000180400090b79f0030
:100950000001eb008fb097000100e00000000600ee
:100960000200700090b79f000180400080b79f0098
:100970000001eb00ffa897000100e0000000060066
:100980000200700080b79f00018040006faa9700ae
:10099000cf20de0001007000f0af9f000402420093
:1009a000250007004f18de0000027200000006005c
:1009b000e4af9f000804440089844c000a054d0000
:1009c0008b854d00000006003fb29700cfb2970024
:1009d0005fb39700efb3970000fe2f000000060002
:1009e0003fb09700cfb097005fb19700efb197008d
:1009f000000006000205be000004be00e00f50002b
:100a0000e08f5800e00f5900e08f59000000060009
:100a10006000b8006011b8000804500089845800d4
:100a20000a0559008b8559001c002000e00f520078
:100a3000e08f5a00000006000800be000a01be0058
:100a400000000600889fbe008a9fbe008c9fbe00eb
:100a50000404b8000506b8008904460060854e000d
:100a60000606b8000a054600e0854e000706b800f5
:100a70008b054600040eb800890446000a854e0026
:100a8000e0854d00050eb8000a0546008b854e0036
:100a9000060eb8008b0546000416b8000a0546008d
:100aa0008b854e000516b8008b054600041eb80065
:100ab0008b0546000800be000a01be004f06be00be
:100ac0004f05be004f04be000000060077e2a900fb
:100ad0009e80a9009ea0a9008e80a9008ea0a900da
:100ae000000006008e80a9008ea0a900e7416000ea
:100af000e10c20009140780082cfb30082c06000fa
:100b000083c070008000fd00cee0b7008000fd00d3
:100b100001c7b30081416000e10c200091407800e2
:100b2000f2c8b30082c0600083c070008000fd0086
:100b3000cee0b7008000fd00680160004311de00d8
:100b40004411dd00e1092000914078000144a1003a
:100b500082c070008000fd009ee0b7008000fd00b4
:100b60000008b2004700de004500dd00e10920007a
:100b7000914078000154a10080c07000010078000d
:100b80009ee0b70000000600a1138800b0138800a3
:100b90000000060076c2bf000008a300fdff3a0077
:100ba00076c2bf000018a300faff3a0076c2bf0069
:100bb0000028a300f7ff3a0076c2bf000038a30068
:100bc000f4ff3a0076c2bf000048a300f1ff3a00ec
:100bd00079c2bf000068a300eeff3a0000000600e3
:100be0007602a800000006000080fb009013880039
:100bf00078c2bf0001c8b300014060000080fb0064
:100c00000000e9004f00de000000e90000000600df
:100c10007622a80000000600889fbe008a9fbe00c2
:100c20008c9fbe008005780081067800020678005f
:100c3000800478000005eb00150037007662a800fc
:100c40000004eb00030037008c0f54001300310048
:100c50000804e800490007000004e000faff320041
:100c60008013800080767d008904e90002003a004c
:100c700076a2a8000100370076a2a9007682a8001b
:100c800076c2bf000048a300fdff3a000a05e80055
:100c90008b0f5500e9ff3a008004eb000900780053
:100ca0004f06be004f05be004f04be000000060008
:100cb0007642a8000000060007e2a9009600a900fd
:100cc0009620a9008600a9008620a9000000060041
:100cd0008600a9008620a900e7416000c10a200023
:100ce0009140780082cfb30082c0600083c0700062
:100cf0008000fd00ace0b7008000fd0001c7b3003c
:100d000081416000c10a200091407800f2c8b30020
:100d100082c0600083c070008000fd00ace0b700be
:100d20008000fd00680160004311de0061092000c1
:100d3000914078000104a10082c070008000fd0095
:100d400096e0b7008000fd000008b2004700de001a
:100d50000040400061092000914078000114a1008a
:100d600080c070000100780096e0b7000000060027
:100d700021108800301088000000060078c2bf00f3
:100d80000000d10061006000000006008001eb005f
:100d900002003700817178008301e800828f5100e2
:080da000fcff3a000000060010
:020000040000fa
:020000040002f8
:04aff800af7800002e
:020000040000fa
:020000040002f8
:04affc007f3f000093
:020000040000fa
:10000800ac020000ac020000ac020000ac02000030
:10001800ac020000ac020000ac020000ac02000020
:10002800ac020000ac020000ac020000ac02000010
:10003800ac020000ac020000ac0200002422000068
:10004800ac020000ac020000ac020000ac020000f0
:10005800ac020000ac020000ac020000ac020000e0
:1000680028140000ac020000ac020000ac02000042
:10007800ac020000ac020000ac020000ac020000c0
:10008800ac020000ac020000ac020000ac020000b0
:10009800ac020000ac020000ac020000ac020000a0
:1000a800ac020000ac020000ac020000ac02000090
:1000b800ac020000ac020000ac020000ac02000080
:1000c800ac020000ac020000ac020000ac02000070
:1000d800ac020000ac020000ac020000ac02000060
:1000e800ac020000ac020000ac020000ac02000050
:1000f800ac020000ac020000ac020000ac02000040
:10010800ac020000ac020000ac020000ac0200002f
:10011800ac020000ac020000ac020000ac0200001f
:10012800ac020000ac020000ac020000ac0200000f
:10013800ac020000ac020000ac020000ac020000ff
:10014800ac020000ac020000ac020000ac020000ef
:10015800ac020000ac020000ac020000ac020000df
:10016800ac020000ac020000ac020000ac020000cf
:10017800ac02000020140000ac020000ac02000039
:10018800ac020000ac020000ac020000ac020000af
:10019800ac020000ac020000ac020000ac0200009f
:1001a800ac020000ac020000ac020000ac0200008f
:1001b800ac020000ac020000ac020000ac0200007f
:1001c800ac020000ac020000ac020000ac0200006f
:1001d800ac020000ac020000ac020000ac0200005f
:1001e800ac020000ac020000ac020000ac0200004f
:0801f800ac020000ac020000a3
:020000040000fa
:10020800ac020000ac020000ac020000ac0200002e
:10021800ac020000ac020000ac020000ac0200001e
:10022800ac020000ac020000ac020000ac0200000e
:10023800ac020000ac020000ac0200002422000066
:10024800ac020000ac020000ac020000ac020000ee
:10025800ac020000ac020000ac020000ac020000de
:1002680028140000ac020000ac020000ac02000040
:10027800ac020000ac020000ac020000ac020000be
:10028800ac020000ac020000ac020000ac020000ae
:10029800ac020000ac020000ac020000ac0200009e
:1002a800ac020000ac020000ac020000ac0200008e
:1002b800ac020000ac020000ac020000ac0200007e
:1002c800ac020000ac020000ac020000ac0200006e
:1002d800ac020000ac020000ac020000ac0200005e
:1002e800ac020000ac020000ac020000ac0200004e
:1002f800ac020000ac020000ac020000ac0200003e
:10030800ac020000ac020000ac020000ac0200002d
:10031800ac020000ac020000ac020000ac0200001d
:10032800ac020000ac020000ac020000ac0200000d
:10033800ac020000ac020000ac020000ac020000fd
:10034800ac020000ac020000ac020000ac020000ed
:10035800ac020000ac020000ac020000ac020000dd
:10036800ac020000ac020000ac020000ac020000cd
:10037800ac02000020140000ac020000ac02000037
:10038800ac020000ac020000ac020000ac020000ad
:10039800ac020000ac020000ac020000ac0200009d
:1003a800ac020000ac020000ac020000ac0200008d
:1003b800ac020000ac020000ac020000ac0200007d
:1003c800ac020000ac020000ac020000ac0200006d
:1003d800ac020000ac020000ac020000ac0200005d
:1003e800ac020000ac020000ac020000ac0200004d
:0803f800ac020000ac020000a1
:020000040000fa
:100da800dc0200000f000000ec0200000000000060
:100db800ea02000001000000da0200000e00000054
:100dc800da0200000d000000da0200000c0000004a
:100dd800da0200000b000000da0200000a0000003e
:100de800da02000009000000da0200000800000032
:100df800da02000007000000da0200000600000026
:100e0800da02000005000000da0200000400000019
:100e1800da02000003000000da020000020000000d
:100e2800da02000001000000e202000000000000f9
:100e3800e202000001000000c402000000000000ff
:100e4800c402000001000000c4020000020000000b
:100e5800c402000003000000c402000004000000f7
:100e6800c402000005000000c402000006000000e3
:100e7800c402000007000000c402000009000000ce
:100e8800c40200000a000000c40200000e000000b6
:100e9800c40200000f000000cc0200000f00000098
:100ea800cc0200000e000000cc0200000d00000083
:100eb800cc0200000c000000e40200000200000068
:100ec800e402000003000000e40200000400000047
:100ed800e402000005000000f40200000600000023
:100ee800f402000007000000f402000008000000ff
:100ef800f402000009000000f40200000c000000e9
:100f0800f40200000d000000f40200000e000000d2
:100f1800f40200000f000000ec0200000d000000c9
:100f2800ec0200000c000000ec02000008000000c9
:100f3800ec0200000700000053740000617200001a
:100f4800742000007379000073740000656d000060
:100f58002072000065730000657400000a0000003c
:100f68005f5f000077640000745f00007265000036
:100f78007365000074000000257300002063000002
:100f8800616c00006c650000642c0000206a0000a1
:100f98006966000066690000657300003a20000079
:100fa800257500000a000000536900007a650000fa
:100fb8003a200000636800006172000020250000ec
:100fc800642c000020730000686f00007274000039
:100fd80020250000642c0000206900006e740000c9
:100fe80020250000642c0000206c00006f6e0000bb
:100ff80067200000256400000a00000000010000ce
:1010080001020000700f0000cc280000cd2e000067
:10101800ce320000286e0000756c00006c290000bc
:0410280000000000c4
:020000040000fa
:10102c001000fa00404f9800514f98000040eb0020
:10103c0020479800a2fe07000000eb00a6fe070068
:10104c00000028004007980070022000300798002c
:10105c00be0090004e009000c8fe0700cafe0700bc
:10106c00dcfe07000000eb00000f780008003700e2
:10107c001e0fe8000000000000a62e009e0f1000be
:10108c0003003a000000eb0070079800c400370022
:10109c0076c2bf00614060000004e000f4ff3a003b
:1010ac008ea0a9004e489000ccfe07000000eb007b
:1010bc00000f7800080037001e0fe8000000000049
:1010cc0000a62e009e0f100003003a008000eb00db
:1010dc0071079800b200370078c2bf006140600011
:1010ec000004e000f4ff3a000000eb00000f780071
:1010fc00080037001e0fe8000000000000a62e00bc
:10110c009e0f100003003a000000eb0070079800df
:10111c00a30037008ec0bf000042b2000004e00004
:10112c00f4ff32008ea0a9000000eb00000f780045
:10113c00080037001e0fe8000000000000a62e007b
:10114c009e0f100003003a008000eb00710798001e
:10115c009300370079c2bf0001c8b30001406000a2
:10116c000004e000f3ff3a005e4890009bfe07008d
:10117c000000eb00000f7800080037001e0fe8009d
:10118c000000000000a62e009e0f100003003a0085
:10119c000000eb00700798008100370078c2bf0098
:1011ac00614060000004e000f4ff3a000000eb0036
:1011bc00000f7800080037001e0fe8000000000048
:1011cc0000a62e009e0f100003003a008000eb00da
:1011dc0071079800720037008ec0bf000042b20049
:1011ec000004e000f4ff32000000eb00000f780078
:1011fc00080037001e0fe8000000000000a62e00bb
:10120c009e0f100003003a000000eb0070079800de
:10121c006300370079c2bf0001c8b3000140600011
:10122c000004e000f3ff3a008ea0a90056fe070070
:10123c0074fe07000000eb00000f78000800370078
:10124c001e0fe8000000000000a62e009e0f1000ec
:10125c0003003a008000eb00710798005000370043
:10126c0076c2bf00624060000004e000f4ff3a0068
:10127c000000eb0020079800030037002e009000c0
:10128c000000e80020079800ae009000703e20009f
:10129c00808f5000f9ff3600000000008ea0a900de
:1012ac004e4890000004a0004cfe07000000eb002c
:1012bc00000f7800080037001e0fe8000000000047
:1012cc0000a62e009e0f100003003a000000eb0059
:1012dc0070079800320037008ec0bf000042b20089
:1012ec000004e000f4ff32000000eb00000f780077
:1012fc00080037001e0fe8000000000000a62e00ba
:10130c009e0f100003003a008000eb00710798005c
:10131c002300370079c2bf0001c8b3000140600050
:10132c000004e000f3ff3a008620a900ea00470021
:10133c00823e20002000200034fe070012fe070031
:10134c0058fe07000000eb00000f78000800370083
:10135c001e0fe8000000000000a62e009e0f1000db
:10136c0003003a000000eb00700798000c003700f7
:10137c0076c2bf00644060000004e000f4ff3a0055
:10138c008ea0a900cefd07006a00470090407800af
:10139c00214798002e4090000080fb0070079800b9
:1013ac007e0090000080fa00000006001200fa0097
:1013bc00604f9800714f98000000eb0020079800d8
:1013cc00bffd07000000eb00c3fd07000000280074
:1013dc00400798007002200030079800be00900073
:1013ec004e009000e5fd0700e7fd0700f9fd070042
:1013fc000000eb00100798000b0037001e00900057
:10140c000000e80010079800000000009e0090000b
:10141c0000a62e00808f500003003a000000eb0065
:10142c00000f9800e400370076c2bf0061406000f6
:10143c000004e000f1ff3a008ea0a9006e48900075
:10144c00e6fd07000000eb00100798000b003700ca
:10145c001e0090000000e80010079800000000003b
:10146c009e00900000a62e00808f500003003a00d2
:10147c000000eb00000f9800cf00370078c2bf00cf
:10148c00614060000004e000f1ff3a000000eb0056
:10149c00100798000b0037001e0090000000e800b9
:1014ac0010079800000000009e00900000a62e007f
:1014bc00808f500003003a000000eb00000f9800f2
:1014cc00bd0037008ec0bf000042b2000004e00037
:1014dc00f1ff32008ea0a9000000eb00100798006d
:1014ec000b0037001e0090000000e8001007980069
:1014fc00000000009e00900000a62e00808f50007f
:10150c0003003a000000eb00000f9800aa0037001f
:10151c0079c2bf0001c8b300014060000004e000c4
:10152c00f0ff3a007e489000acfd07000000eb0095
:10153c00100798000b0037001e0090000000e80018
:10154c0010079800000000009e00900000a62e00de
:10155c00808f500003003a000000eb00000f980051
:10156c009500370078c2bf00614060000004e000c5
:10157c00f1ff3a000000eb00100798000b00370059
:10158c001e0090000000e80010079800000000000a
:10159c009e00900000a62e00808f500003003a00a1
:1015ac000000eb00000f9800830037008ec0bf00d6
:1015bc000042b2000004e000f1ff32000000eb003a
:1015cc00100798000b0037001e0090000000e80088
:1015dc0010079800000000009e00900000a62e004e
:1015ec00808f500003003a000000eb00000f9800c1
:1015fc007100370079c2bf0001c8b3000140600020
:10160c000004e000f0ff3a008ea0a9005efd070088
:10161c007cfd07000000eb00100798000b00370062
:10162c001e0090000000e800100798000000000069
:10163c009e00900000a62e00808f500003003a0000
:10164c000000eb00000f98005b00370076c2bf0073
:10165c00624060000004e000f1ff3a000000eb0083
:10166c00000f7800010037001e0fe800703e2000cc
:10167c009e0f1000fcff3600000000008ea0a90099
:10168c006e4890000004a00054fd07000000eb0021
:10169c00100798000b0037001e0090000000e800b7
:1016ac0010079800000000009e00900000a62e007d
:1016bc00808f500003003a000000eb00000f9800f0
:1016cc003d0037008ec0bf000042b2000004e000b5
:1016dc00f1ff32000000eb00100798000b00370000
:1016ec001e0090000000e8001007980000000000a9
:1016fc009e00900000a62e00808f500003003a0040
:10170c000000eb00000f98002b00370079c2bf00df
:10171c0001c8b300014060000004e000f0ff3a0093
:10172c008620a900ea004700823e200030002000fd
:10173c0036fd070014fd07005afd07000000eb0002
:10174c00100798000b0037001e0090000000e80006
:10175c0010079800000000009e00900000a62e00cc
:10176c00808f500003003a000000eb00000f98003f
:10177c001100370076c2bf00644060000004e00036
:10178c00f1ff3a008ea0a900cdfc07006a004700cb
:10179c00104090000080fb00c800dd006a0047008c
:1017ac00104078000080fb0000807000200798003b
:1017bc002e009000000f98000e0890000080fa0098
:1017cc00000006000600fa004047980051479800b8
:1017dc00ce4090005e40900000c068000080fb008e
:1017ec00000f78001e0078004800dd00000f780024
:1017fc000000eb00100798000b0037001e0078006b
:10180c000000e00002003d00003828001e0f6800b8
:10181c001e00780000004000000f78001e009000b1
:10182c000000e800100798001e009000e70f500021
:10183c00f2ff34001e0078004800de000080fb0040
:10184c000080fa00000006000a00fa0040479800e9
:10185c0031079800420798000040eb00004f7800d9
:10186c00ce4090001e407800d6ff0700004f780055
:10187c000000eb00100798000b0037001e009000d2
:10188c00800078003e00900000804000904078007e
:10189c001e407800cbff0700004f78001e00900020
:1018ac000000e800100798009e0090004e00900089
:1018bc00808f5000f1ff35004e00900080007800c2
:1018cc003e009000008040001e4878000000eb00b5
:1018dc000080fa00000006000c00fa00004f98008f
:1018ec00114f980076fc07000000eb007afc070013
:1018fc000000280030079800700220002007980094
:10190c00ae0090003e0090009cfc07009efc07007f
:10191c00b0fc07000000eb00000f78000800370057
:10192c001e0fe8000000000000a62e009e0f100005
:10193c0003003a000000eb005007980092003700bb
:10194c0076c2bf00614060000004e000f4ff3a0082
:10195c008ea0a9000e489000a0fc07000000eb0030
:10196c00000f7800080037001e0fe8000000000090
:10197c0000a62e009e0f100003003a000000eb00a2
:10198c00500798008000370078c2bf0061406000ab
:10199c000004e000f4ff3a000000eb00000f7800b8
:1019ac00080037001e0fe8000000000000a62e0003
:1019bc009e0f100003003a000000eb005007980047
:1019cc00710037008ec0bf000042b2000004e0007e
:1019dc00f4ff32008ea0a9000000eb00000f78008d
:1019ec00080037001e0fe8000000000000a62e00c3
:1019fc009e0f100003003a000000eb005007980007
:101a0c006100370079c2bf0001c8b300014060001b
:101a1c000004e000f3ff3a00b0c3b30056e9b7008e
:101a2c001e48900057e9b7000040eb0058e9b7009a
:101a3c0032002000619520000e48900082ff0700c4
:101a4c000040eb0020479800380037002e409000f3
:101a5c008080fb00609520000080400010407800e2
:101a6c005efc07000000eb00000f78000800370058
:101a7c001e0fe8000000000000a62e009e0f1000b4
:101a8c0003003a000000eb00500798003e003700be
:101a9c0078c2bf00614060000004e000f4ff3a002f
:101aac000000eb00000f7800080037001e0fe80064
:101abc000000000000a62e009e0f100003003a004c
:101acc000000eb00500798002f0037008ec0bf00bd
:101adc000042b2000004e000f4ff32008ea0a90026
:101aec000000eb00000f7800080037001e0fe80024
:101afc000000000000a62e009e0f100003003a000c
:101b0c000000eb00500798001f00370079c2bf009f
:101b1c0001c8b300014060000004e000f3ff3a008c
:101b2c002e4090000040e800204798002e40900086
:101b3c00e34f5000c5ff360013fc070059fc0700ab
:101b4c000000eb00000f7800080037001e0fe800c3
:101b5c000000000000a62e009e0f100003003a00ab
:101b6c000000eb00500798000700370076c2bf005a
:101b7c00644060000004e000f4ff3a00d0fb070072
:101b8c000000eb00500798005e0090000080fa0007
:101b9c00000006000a00fa00400798006000b80038
:101bac0020079800310798004e0090004a00de0094
:101bbc00610060000000e00005003a004e0090005b
:101bcc00f17f20000100600010079800060037002c
:101bdc00ce009000f07f20008080600000802f00fd
:101bec0000804000100798004e0090000000e000bc
:101bfc0006003500ce00900000802f0000806000b1
:101c0c004b00de00004f780008003700ce0090003b
:101c1c0000802f00008060004b00de0080407800c8
:101c2c0000ceb30000c04000004f78001e009000b2
:101c3c00cf80de0020079800310798001e04e000da
:101c4c0012003500060037002e009000be009000f8
:101c5c000000400081804800200798003107980060
:101c6c001e4fe90000c0eb009e4f1000f6ff3a003b
:101c7c000a0037002e009000be0090008180d10039
:101c8c000080d30020079800310798001e4fe80011
:101c9c0010c0b3009e4f1000f6ff3a002e009000cb
:101cac00be0090000080fa00000006001400fa004c
:101cbc0002c8bf000040e80002e8b70002c8bf003d
:101ccc00e94f5000fa0136000040eb0002e8b70083
:101cdc00d4c8bf000004e00009003200e1c8bf0016
:101cec00e14f500006003a00418d200091407800f1
:101cfc0020cbb300f8fe07000040eb00d4e8b7009f
:101d0c00e4c8bf000004e00009003200e1c8bf00d5
:101d1c00e14f500006003a00418e200091407800bf
:101d2c0000cbb300ecfe07000040eb00e4e8b7008a
:101d3c000000eb00000f9800100037000000eb00d3
:101d4c0070079800060037006e0090000000e80055
:101d5c00600798007e0090000000e8007007980073
:101d6c00fe009000f0042000808f5000f6ff36003b
:101d7c000e0890000000e800000f98008e089000fc
:101d8c00700c2000808f5000ecff360001c8bf00a3
:101d9c000080fb00100f98001e089000e20f50000e
:101dac003e0032001e089000e20f500007003c007d
:101dbc001e0890000000e0000e0032001e0890008b
:101dcc00e10f500020003200b70137001e089000d0
:101ddc00e40f5000b30032001e089000e40f5000d6
:101dec009b0035001e089000e50f5000c200320029
:101dfc00ad01370010c0b30001e8b70091c7b300c4
:101e0c0000cbb30069fd0700400798004e0090001e
:101e1c00d5e8b7004e0090004800de00d6e8b700c9
:101e2c0091c7b30020cbb30060fd070040079800ba
:101e3c004e009000c5e8b7004e0090004800de0050
:101e4c00c6e8b7009a01370020c0b30001e8b7001c
:101e5c0081c8b30000cbb30054fd070040079800c5
:101e6c004e009000d7e8b7004e0090004800de000e
:101e7c00d8e8b70081c8b30020cbb3004bfd0700f6
:101e8c00400798004e009000c7e8b7004e00900045
:101e9c004800de00c8e8b7008501370030c0b30049
:101eac0001e8b700b1c8b30000cbb3003ffd070099
:101ebc004007980001c2b30000cbb30058fc0700e8
:101ecc00304f98003e4890000080fb007f0060007f
:101edc00f60f50000f0034003e4890007f40600029
:101eec0077405000204f9800030037004e009000c0
:101efc0000004000400798002e4890000040e90088
:101f0c00204f98002e489000e14f4000f7ff3a0018
:101f1c00140037003e4890000080fb007f006000fa
:101f2c00f60f50000f003c003e489000ff40600050
:101f3c0070c1b30001405000204f980003003700df
:101f4c004e0090000000d100400798002e489000f1
:101f5c000040e900204f98002e489000e14f4000cf
:101f6c00f7ff3a004e009000d9e8b7004e00900001
:101f7c004800de00dae8b700b1c8b30020cbb300ec
:101f8c000afd07004007980001c2b30020cbb30044
:101f9c0023fc0700304f98003e4890000080fb0067
:101fac007f006000f60f50000f0034003e48900098
:101fbc007f40600077405000204f980003003700ae
:101fcc004e00900000004000400798002e48900002
:101fdc000040e900204f98002e489000e14f40004f
:101fec00f7ff3a00140037003e4890000080fb00d9
:101ffc007f006000f60f50000f003c003e48900040
:10200c00ff40600070c1b30001405000204f9800a9
:10201c00030037004e0090000000d10040079800ec
:10202c002e4890000040e900204f98002e48900068
:10203c00e14f4000f7ff3a004e009000c9e8b700ae
:10204c004e0090004800de00cae8b70018013700c7
:10205c0040c0b30001e8b70001c9b30000cbb30026
:10206c00d2fc0700400798004e009000dbe8b70058
:10207c004e0090004800de00dce8b70001c9b30058
:10208c0020cbb300c9fc0700400798004e0090001d
:10209c00cbe8b7004e0090004800de00cce8b7005b
:1020ac000301370050c0b30001e8b700d1c8b3003a
:1020bc0000cbb300bdfc0700400798004e00900019
:1020cc00dde8b7004e0090004800de00dee8b70007
:1020dc00d1c8b30020cbb300b4fc07004007980074
:1020ec004e009000cde8b7004e0090004800de0096
:1020fc00cee8b700ee0037000040eb0001e8b70077
:10210c00e1c8b30000cbb300a8fc0700400798005f
:10211c004e009000dfe8b7004e0090004800de0053
:10212c00e0e8b7000000eb00000f9800100037004b
:10213c000000eb0070079800060037006e0090005e
:10214c000000e800600798007e0090000000e800a6
:10215c0070079800fe009000f0042000808f500063
:10216c00f6ff36000e0890000000e800000f980003
:10217c008e089000700c2000808f5000ecff360011
:10218c00e1c8bf000004e00044003a004e0090009b
:10219c0080fe0700008fbe001e00be00e00f500046
:1021ac00e08f580006003d0081c2b30000cbb300a5
:1021bc00c9fd070080c2b3005be9b70037003700e8
:1021cc004006200001002000be0f1000ae8f18004a
:1021dc0032003c00d3c8bf000080fb00010020008f
:1021ec00be0f5000ae8f580007003d0040c6b30034
:1021fc005ae9b700a19520009140780000cbb300bc
:10220c00b5fd070025003700d2c8bf000080fb00d9
:10221c0001002000be0f5000ae8f58000d003d0095
:10222c00a195200091407800a0c5b30080cf50004c
:10223c0003003e005ac9bf006a4040005ae9b7008b
:10224c00a19520009140780000cbb300a2fd0700bf
:10225c0012003700d1c8bf000080fb000100200035
:10226c00be0f5000ae8f58000c003400a19520001a
:10227c009140780070c2b30080cf5000030036004c
:10228c005ac9bf006a4050005ae9b700a195200016
:10229c009140780000cbb3008ffd0700e1c8b3007c
:1022ac0020cbb30041fc0700400798004e00900083
:1022bc00cfe8b7004e0090004800de00d0e8b70031
:1022cc000000eb00000f9800100037000000eb003e
:1022dc0070079800060037006e0090000000e800c0
:1022ec00600798007e0090000000e80070079800de
:1022fc00fe009000f0042000808f5000f6ff3600a6
:10230c000e0890000000e800000f98008e08900066
:10231c00700c2000808f5000ecff3600e1c8bf002d
:10232c000004e0004e003a004e00900019fe070039
:10233c0020079800310798002e009000be009000f6
:10234c00e00f5000e08f580006003d0081c2b30042
:10235c0020cbb30060fd070080c2b3005be9b7007f
:10236c003f0037002e019000be0190004006200077
:10237c0001002000800f5100818f590038003c0073
:10238c00d3c8bf000081fb00030020002e0090008a
:10239c00be009000800f5100818f590007003d0056
:1023ac0040c6b3005be9b700b195200091407800be
:1023bc0020cbb30048fd070029003700d2c8bf006e
:1023cc000081fb00030020002e009000be00900056
:1023dc00800f5100818f59000d003d00b1952000f8
:1023ec0091407800a0c5b30080cf500003003e00a0
:1023fc005bc9bf006a4040005be9b700b1952000a3
:10240c009140780020cbb30033fd07001400370057
:10241c00d1c8bf000081fb00030020002e009000fb
:10242c00be009000800f5100818f59000c003400c9
:10243c00b19520009140780070c2b30080cf50005d
:10244c00030036005bc9bf006a4050005be9b7006f
:10245c00b19520009140780020cbb3001efd070001
:10246c0000c8bf000004e000060032000040eb0092
:10247c0000e8b7008000eb00406d28000e0007005c
:10248c000b00370000c8bf000004e00008003a0051
:10249c0010c0b30000e8b70011002000406d280008
:1024ac0005000700020037000040eb0001e8b70010
:1024bc000080fa00000006000600fa00000f780009
:1024cc00110798000000eb00200798001e009000f8
:1024dc000000e00002003a001000200020079800e5
:1024ec00ae0090001e007800020007000080fa0089
:1024fc00000006000600fa0010079800210798005b
:10250c001e009000204090008080fb0010002000f6
:10251c000100dd00000f78002e0090000000e000ac
:10252c00080032001e009000900078001e00900001
:10253c0010007800100078001e00700080087800f1
:10254c00080037001e009000100178001e0090005b
:10255c0010007800900078001e80ea000080600077
:10256c00000978000080fa00000006000600fa005e
:10257c0040479800514798004e409000ef4f500054
:10258c000a0036004e409000ff4f500007003e00fe
:10259c004e4090008080fb00508020000080400066
:1025ac00de409000014878007c0037004e409000df
:1025bc000004e00016003d00ce409000f0c8b300cf
:1025cc0080cf500012003e004e4090008080fb00f7
:1025dc0000f82f0000804000100798005e4090002b
:1025ec00e14f500007003a00110020001e0090003f
:1025fc000008dd008000780030488000008070000a
:10260c00304888003048800008e8b7006300370085
:10261c00ce409000f0c9b30080cf500013003600bc
:10262c00ce409000f0cab30080cf50000f003e00a7
:10263c004e4090008080fb0000f62f00008f400081
:10264c005e409000e14f500054003a001100200011
:10265c001e0078000008dd008000780040488000f3
:10266c0000807000404888004c0037004e409000bd
:10267c00e54f500019003a004e4090008080fb005e
:10268c005080200000804000de409000014878001f
:10269c00de40900050c5b30080cf500002003a00dd
:1026ac00480607003d003700de409000a0cab3008a
:1026bc0080cf500002003a005d060700370037005b
:1026cc004e4090008080fb005080200080804000b5
:1026dc0000c0eb008048780030003700ce409000fe
:1026ec0000c7b30080cf500003003a005e4090005a
:1026fc0075e8b70029003700ce409000c0cdb3007c
:10270c0080cf500003003a005e409000e1e8b70033
:10271c0022003700ce409000f0ccb30080cf5000a8
:10272c0003003a005e409000d4e8b7001b0037006d
:10273c00ce409000f0cdb30080cf500003003a00a3
:10274c005e409000e4e8b70014003700ce409000e3
:10275c00c0ccb30080cf500003003a005e40900024
:10276c00d1e8b7000d003700ce409000d0ccb300bc
:10277c0080cf500003003a005e409000d2e8b700d2
:10278c0006003700ce409000e0ccb30080cf500064
:10279c0002003a005e409000d3e8b7000080fa00d7
:1027ac00000006000200fa005080200002102000f9
:1027bc008000eb0072f907000000eb00000f7800be
:1027cc000d0037001e00780080004000208028009b
:1027dc00614078000081fb001e0078008000400002
:1027ec0030802800e140780050802000000041003b
:1027fc00014878001e0fe8001e007800e50f50001d
:10280c00f0ff36000080fa00000006000000fa001d
:10281c009600a900e3ff07009600a8000000eb005b
:10282c00304888000000eb00404888000080fa0027
:10283c00000006000000fa008ea0a9000080fa003b
:10284c00004006003600f800809fbe00829fbe004c
:10285c00849fbe00869fbe000400fa0008c2bf0021
:10286c000042b2000004e0000a003a0008c2bf00b7
:10287c00644060000004e00006003a000010800094
:10288c00104798000782a8000040eb0004e8b7004e
:10289c003000370008c2bf000042b2000004e00064
:1028ac001a00320008c2bf00644060000004e0005f
:1028bc0016003a0000108000004f78000782a80034
:1028cc0004c8bf000004e00003003a001e4078007a
:1028dc0003e8b700030037009e40780003c8bf0030
:1028ec0022ff070004c8bf008040eb00214798007e
:1028fc000004e00002003a0010c0b300204798002a
:10290c002e40900004e8b7001200370008c2bf0048
:10291c000042b2000004e0000e003a0008c2bf0002
:10292c00644060000004e0000a00320000108000e7
:10293c001047980003c8bf008080fb005080200027
:10294c0000804000104078000080fb0010108800d0
:10295c000782a8008600a9000080fa004f03be0081
:10296c004f02be004f01be004f00be003600f90002
:10297c00004006000400fa008aff0700cbf80700ad
:10298c000000eb00cff807000004290010079800a6
:10299c000000eb00000f78009e0078001e009000f5
:1029ac00f0f807000003200050108800f000200011
:1029bc00c4f807009600a80081c2b30000cbb30096
:1029cc00c5fb070081c2b30020cbb300c2fb0700dc
:1029dc000080fa00000006001000fa004007980082
:1029ec0051079800620798004006200030079800b5
:1029fc000000eb00100798000000eb002007980087
:102a0c00280037000000eb00000f780008003700aa
:102a1c001e0078004200dd00800078004e0090001f
:102a2c00008040009e009000320007001e0fe8005e
:102a3c005e0090009e0f1000f5ff35000000eb00cb
:102a4c00700798001e0090000000e00002003a00a1
:102a5c0010002000700798007e009000100798006e
:102a6c003e00900001002000020020000300200026
:102a7c0004902000d50320006033b800b5f60700a1
:102a8c00843e2000050020006033b80059f7070091
:102a9c0071f60700ae0090003e00900000804000f0
:102aac0020079800ae0090006e009000808f5000c0
:102abc00d4ff39000000eb00000f7800080037004d
:102acc001e0078004200dd00800078004e0090006f
:102adc00008040008000eb00060007001e0fe8009d
:102aec005e0090009e0f1000f5ff35000080fa008c
:102afc00000006000600fa00000f7800110798008d
:102b0c000000eb00200798001e0090000000e00081
:102b1c0002003a001000200020079800ae00900040
:102b2c001e007800020007000080fa00000006007a
:102b3c000600fa0010079800210798001e0090006c
:102b4c00204090008080fb00100020000100dd0080
:102b5c00000f78002e0090000000e000080032000a
:102b6c001e009000900078001e009000100078006d
:102b7c00100078001e0070008008780008003700f4
:102b8c001e009000100178001e00900010007800cc
:102b9c00900078001e80ea00008060000009780038
:102bac000080fa00000006000400fa00000f780014
:102bbc00110798001e0190001e0078004200dd00f5
:102bcc0080007800007628000080400082007800a9
:102bdc00d7ff07000080fa00000006000200fa0090
:102bec00c0032000000f7800201780001e0070002a
:102bfc00201788009e80ea0000178000008060008b
:102c0c0000178800823e200041002000007228003e
:102c1c0071ff0700003c2000000f7800a017800017
:102c2c001e007000a01788009e80ea0080178000ac
:102c3c00008060008017880000732800823e20000e
:102c4c004100200064ff070000002f00000f7800f7
:102c5c00a01780001e007000a01788009e80ea005c
:102c6c0080178000008060008017880000742800a6
:102c7c00823e20004100200057ff0700001823006f
:102c8c00000f7800601780001e007000601788002d
:102c9c009e80ea004017800000806000401788008a
:102cac0000752800823e2000410020004aff0700ea
:102cbc000000eb00104b88000080fa0000000600ba
:102ccc000200fa000000eb00000f7800040037004f
:102cdc008000eb001e007800b3ff07001e0fe80019
:102cec001e007800ef0f5000f9ff36000080fa004c
:102cfc00000006000000fa000080eb00601988005c
:102d0c000080eb00501988000000eb0000168800d2
:102d1c0041168000f0ff2000008060004016880003
:102d2c00f0ff2700c0168800001780003000b300a9
:102d3c00001788006103800000002e0000807000e6
:102d4c0060038800700380009001b300700388005a
:102d5c0091038000c0ff2000008070009003880069
:102d6c0011002000406d280062ff07004017800012
:102d7c000010a00040178800601780000000a00021
:102d8c006017880041178000e0ff2f000080600072
:102d9c00401788000000eb00704a88000080fa00a1
:102dac00000006000800fa00100020003007980010
:102dbc000000eb00200798000000eb0010079800c3
:102dcc00130037001e0090004200dd0080007800e8
:102ddc00006e28000080400013000700000f7800f0
:102dec001e00e000040032002e009000be00900097
:102dfc0001007000200798001e0090000000e80001
:102e0c00100798003e00900000004000300798002a
:102e1c001e009000ef0f5000eaff36002e009000cd
:102e2c000080fa00000006000600fa001007980067
:102e3c001e009000204090008080fb0010002000bd
:102e4c000100dd00000f78001e00900010007800db
:102e5c00100078001e0060000000e000030032004b
:102e6c001000200020079800020037000000eb0043
:102e7c00200798002e0090000080fa000000060049
:102e8c000c00fa0030079800410798000000eb0096
:102e9c001007980010002000200798001b00370036
:102eac003e0090000000a200610060000004e00001
:102ebc000d003a004e009000ae0090000100600042
:102ecc00000f78000000eb00500798001e00e00097
:102edc0002003a001000200050079800de0090001d
:102eec001e00900030ff07002e00900000004000f4
:102efc00200798003e0090000000d1003007980099
:102f0c001e0090000000e800100798003e009000a2
:102f1c000000e000e2ff3a000080fa00000006002a
:102f2c000400fa00100798001e0090000104200015
:102f3c00010f40001e0178009e0078005080200098
:102f4c000080400010407800804078000144a000d0
:102f5c005080200000004100014878008000eb0008
:102f6c001e00900010ff0700110020001e009000b2
:102f7c000008dd0080007800504880000080700060
:102f8c00504888001e01900075c8bf000040e80042
:102f9c0080407800e0922000000041000148780059
:102fac000080fa00000006000a00fa0030079800c2
:102fbc003e0090000004b000200798001100200093
:102fcc003e0090000008dd00000f78002e019000fc
:102fdc00ae009000508020000080400090407800af
:102fec00f0ceb30080c06000508020000000410093
:102ffc00014878009e80ea00504880000080600004
:10300c0050488800104b80001e006000100798008c
:10301c000000eb00400798001e0090000000e0004c
:10302c0002003a001000200040079800ce009000eb
:10303c003e009000dcfe0700be009000e0922000f5
:10304c00808040000040eb00804878000080fa004f
:10305c00000006000400fa00504880001007980099
:10306c000000eb00000f7800190037001e009000e4
:10307c000000a200610060000004e00010003a00b3
:10308c001e017800e0922000000041001040780002
:10309c008040e900e09220000000410001487800e7
:1030ac009e007800e09220000080400010407800e4
:1030bc000004e00002003a001e007800baff07008e
:1030cc001e0fe8001e0090000000d10010079800b1
:1030dc001e0090000000e000e4ff3a000080fa00bf
:1030ec00000006000400fa00100798000000eb0036
:1030fc00000f78000000eb00000f78000b00370089
:10310c001e0090000000a200610060000004e000be
:10311c0002003a001e00780081ff07001e0090009c
:10312c000000d100100798001e0fe8001e00900050
:10313c000000e000f2ff3a000080fa0000000600f8
:10314c000400fa00100798000000eb00000f780054
:10315c000000eb00000f78000a0037001e00900002
:10316c00610060000004e00002003a001e007800dc
:10317c008dff07001e0090000000d1001007980082
:10318c001e0fe8001e0090000000e000f3ff3a0064
:10319c000080fa00000006000200fa00000f780020
:1031ac00a803070099fd0700e0932000020120000e
:1031bc008000eb00f2f607000080eb00e0ff070058
:1031cc001e00e0000200320084fe07000100370000
:1031dc00bbfe07000080fa00000006000600fa00a3
:1031ec00c06d280010ff0700000f7800714a8000a6
:1031fc001e007800008068006100600010079800d5
:10320c000e80e80002c1b300c19020001604070034
:10321c00714a80001e00900000806800704a88008f
:10322c001e009000200798002e0090000000e00087
:10323c000200320010002000200798002e009000a1
:10324c000080fa00000006000400fa000000eb0009
:10325c00100798000000eb00000f78003048800049
:10326c000000e000060032009600a9003048800003
:10327c00100798000000eb00304888009600a8006a
:10328c00404880000000e000060032009600a900d3
:10329c0040488000000f78000000eb0030488800a8
:1032ac009600a800704a80000000e0000400320084
:1032bc001e0090008bff07001e007800a0ff070087
:1032cc000080fa00000006000600fa00c3ff0700a9
:1032dc00000f78001e00e00003003200704a8000ee
:1032ec00adff07001d003700704a80000000e000b1
:1032fc001a003200abfe07001007980050488000ff
:10330c000000e0000100320052ff0700114b80006a
:10331c001e009000008068002007980064004700a1
:10332c0002c1b300e1902000cf030700114b8000d5
:10333c002e00900000806800104b880050488000e0
:10334c008080ea002e00900000806000200798002a
:10335c00114b80002e009000c9fe07000080fa007f
:10336c00000006000600fa002007980020c0b300f9
:10337c002047980000c2b30010479800ae009000a0
:10338c00e093200000804000104f78001e40900019
:10339c009e4f1000020036001e409000004f780037
:1033ac001e4090009e4f1000090032001e81fb0051
:1033bc001e4090008080fb002e4090000080fb009f
:1033cc000000400000805000800f510008003a00bf
:1033dc002e0090004200dd00800078000072280072
:1033ec000080400011002000c2fd070018003700cb
:1033fc001e81fb001e4090008080fb002e40900040
:10340c000080fb0000805000800f5100090032004a
:10341c009e81fb001e4090000081fb002e4090001e
:10342c000080fb006300b90000005100808f510048
:10343c0007003a002e0090004200dd00800078006a
:10344c0000722800008040008000eb00a9fd0700fe
:10345c001e04e00003003a001e409000004f78006c
:10346c00010037001e4fe9002e009000e193200070
:10347c00010040001e4878000080fa0000000600a1
:10348c000600fa0010079800414798009e00900033
:10349c00e093200000804000104078000004e00021
:1034ac00080032001e019000e09320000000410053
:1034bc00104078008040e900e093200000004100bb
:1034cc00014878009e009000e093200000804000ae
:1034dc00104078000004e0001f003a001e0090002d
:1034ec004200dd008000780000722800008040005f
:1034fc004dfe0700000f78001e0178001e009000a2
:10350c004200dd008000780000722800008040003e
:10351c008200780077fd07009e009000e093200069
:10352c0000804000ce409000014878009e00900042
:10353c00e093200000804000104078000004e00080
:10354c0005003a009e009000e0932000808040002f
:10355c0080c0b300804878000080fa0000000600ac
:10356c000800fa00200798002e009000700f400011
:10357c009e007800508020000080400010407800b1
:10358c00204798001e009000634060000080fb0004
:10359c00300798003e009000e10f50001b003200f5
:1035ac003e009000e10f500004003c003e009000f3
:1035bc000000e000080032002a0037003e009000b6
:1035cc00e20f50001e0032003e009000e30f50004e
:1035dc0022003200230037002e0090004200dd0054
:1035ec008000780000722800008040008000eb0012
:1035fc0040fd0700ae009000e0932000808040006a
:10360c000040eb0080487800160037002e00900038
:10361c004200dd008000780000722800008040002d
:10362c001100200033fd0700ae009000e093200055
:10363c00808040000040eb00804878000900370093
:10364c001e0090004200de00f043b2008040780083
:10365c002e0090008aff0700020037002e00900019
:10366c0040ff07000080fa00000006000200fa008c
:10367c000000eb00000f7800030037001e007800fc
:10368c00b7ff07001e0fe8001e007800ef0f500078
:10369c00faff36000080fa00000006000400fa0071
:1036ac00000f7800110798001e00e0000a0032009d
:1036bc001e007800900078001e0090008048780072
:1036cc001e007800100078008000e8001e007800d2
:1036dc0001087800020037001e009000020007006d
:1036ec000080fa00000006000200fa00004f78008b
:1036fc00a0c0b3009e4f100005003a0064c9bf0083
:10370c00ed4f500002003200d0c0b300bb020700e6
:10371c001e407800b90207001e40780064e9b7002b
:10372c000080fa00000006001000fa00000f78007c
:10373c001107980022079800330798000000eb004f
:10374c007007980001022000610798002e0090007d
:10375c000000e000210034000000eb00500798004e
:10376c009e00900041079800060037005e00900014
:10377c000000e80050079800ce0090008100e8009f
:10378c0041079800ce009000114078000004e00042
:10379c00f6ff3a002e009000de009000808f500063
:1037ac00030035000000eb002007980004003700f0
:1037bc002e009000de0090000100500020079800c1
:1037cc003e0090000000d100610060000004e000a9
:1037dc000200320000032000600798003e009000b9
:1037ec00610060000000e00019003a000900370099
:1037fc00ee0090001e007800a8ff0700fe0090006d
:10380c008100e800710798002e0090000000e9008c
:10381c00200798002e0090000000e000f4ff3c0010
:10382c000b0037001e009000104078008000fb0059
:10383c001e00780099ff07007e0090000000e80051
:10384c00700798001e0090000000e8001007980018
:10385c001e009000104078000004e000f1ff3a00d8
:10386c0009003700ee0090001e0078008bff070067
:10387c00fe0090008100e800710798002e00900077
:10388c000000e900200798002e0090000000e000e6
:10389c00f4ff3c007e0090000080fa00000006005f
:1038ac002600fa006007980071079800020f980034
:1038bc00130f9800240f9800350f9800460f9800ae
:1038cc000000eb00700f98008000eb00610f980077
:1038dc007e019000520f98007e0090000000e000e6
:1038ec000b003a0000c3b300004f78000040eb001f
:1038fc0010479800be0990002e0990008e007800a9
:10390c006e00900088ff07002017980056003700c3
:10391c001e0890000000e0000b0032000e08900022
:10392c00ea0f500008003a007e0090000000e00012
:10393c0005003d0013002000730f98007e009000de
:10394c000000ea00500f98006b0047001017980019
:10395c000040eb009e109000804878001b00370060
:10396c000e099000de099000110009008281d80038
:10397c008000fd00001798000e109000e90f500019
:10398c00060034004e0890000e119000800041009b
:10399c0060fc2f0080804000011798009e11900061
:1039ac008301e900131798000e6090000043b000eb
:1039bc009e109000804878000e099000de0990005f
:1039cc00110009008281d800500f98005e08900009
:1039dc000000e000e2ff3a00fe0890000100e00069
:1039ec00190032002e0890000000e0001000320098
:1039fc003e0890000000d100610060000004a200ad
:103a0c000004e0000a003a00d10220006e00900091
:103a1c0022ff07006e0990000201e800620f980077
:103a2c002e0890000000e900200f980006003700d7
:103a3c009e1190008301e90013179800d0c2b300c7
:103a4c009e10900080487800be0990002e099000ce
:103a5c009e1090006e00900033ff07006e099000de
:103a6c0002004000201798002e1090000080fa00f1
:103a7c00000006001200fa001007980021079800b9
:103a8c00320798000000eb0050079800d500370073
:103a9c002e0090009040780050c2b30080cf5000b0
:103aac00c5003a002e0090000000e80020079800a6
:103abc008000eb00610798006e019000720798007f
:103acc002e009000104078000004e000c900320085
:103adc002e0090009040780050c2b30080cf500070
:103aec00b50032002e00900090407800d0c2b30098
:103afc0080cf50000c003a002e0090000000e8002f
:103b0c00200798001000200060079800060037007e
:103b1c002e0090000000e80020079800ee009000b6
:103b2c000110a000610798002e00900090407800d2
:103b3c0000c3b30080cf5000f5ff32000e003700f9
:103b4c007e0190006a10b900700798002e0090005a
:103b5c00104078000000fb007e01900082004000c5
:103b6c0000fd2f0080804000710798002e0090000f
:103b7c000000e800200798002e009000904078008c
:103b8c00f0c2b30080cf5000050034002e0090002e
:103b9c009040780090c3b30080cf5000e8ff340011
:103bac002e0090009040780030c7b30080cf5000ba
:103bbc0017003a003e0090000080e90030079800a2
:103bcc003e00900010007800400798004e009000d6
:103bdc000000e00003003200ce009000010f9800be
:103bec0002003700e2802800020f9800ee019000de
:103bfc007e0190008e0890001e009000cafe070007
:103c0c00de00900080804000510798007200370061
:103c1c002e0090009040780040c6b30080cf50003a
:103c2c0010003a003e0090000080e9003007980038
:103c3c003e0090009000780016062000ee029000e6
:103c4c007e02900013002000a20020001e009000b5
:103c5c0013ff07005e01900000014100520798001d
:103c6c005d0037002e0090009040780080c7b300b4
:103c7c0080cf500010003a003e0090000080e90018
:103c8c00300798003e009000900078001606200047
:103c9c00ee0290007e0290008001eb0002012000f9
:103cac001e009000fefe0700de00900080804000a9
:103cbc0051079800480037002e0090009040780083
:103ccc0080c5b30080cf500010003a003e00900039
:103cdc000080e900300798003e00900090007800ca
:103cec0016042000ee0290007e0290008001eb0092
:103cfc00020120001e009000e9fe07005e0190000a
:103d0c000001410052079800330037002e0090004c
:103d1c009040780050c7b30080cf500010003a009c
:103d2c003e0090000080e900300798003e009000b3
:103d3c009000780016062000ee0290007e029000a3
:103d4c008001eb00a20020001e009000d4fe0700b2
:103d5c00de00900080804000510798001e00370064
:103d6c002e0090009040780030c6b30080cf5000f9
:103d7c0019003a003e0090000080e90030079800de
:103d8c003e00900010007800004f78000040eb00df
:103d9c0010479800ee0190007e0190008e00780094
:103dac001e00900060fe07005e01900000014100c3
:103dbc0052079800080037002e0090001040780041
:103dcc008000fb001e00900034fe07005e00900097
:103ddc000000e800500798002e0090000000e8005a
:103dec00200798002e009000104078000004e0009e
:103dfc0027ff3a001e0090000000e0000400320093
:103e0c001e009000900078000040eb008048780085
:103e1c005e0090000080fa00000006000400fa002a
:103e2c00100798001e009000000f78001400370057
:103e3c001e00900010407800ea4f50000a003a0033
:103e4c001e0090009e0f5000070032001e009000d4
:103e5c000000e90010407800ed4f500002003200e5
:103e6c00d0c0b30020fe07001e0090001040780068
:103e7c001dfe07001e0090000000e80010079800cf
:103e8c001e009000104078000004e000e8ff3a00ab
:103e9c000080fa00000006000200fa0068005700db
:103eac00000f78001e017800ceb897000000eb00e0
:103ebc00f0fe07000080fa00000006000400fa0083
:103ecc001007980068005700000f78000e80e8007b
:103edc001e017800ceb89700e6fe07000080fa00bd
:103eec00000006000200fa00007a2800801f78000b
:103efc00e9ff07008f87e9000000eb00000f780056
:103f0c000d0037008000eb00806d28000f000700cb
:103f1c0000102700210020004ff1070011002000a5
:103f2c00806d2800090007000010270021002000e8
:103f3c0049f107001e0fe800100020009e0f100032
:103f4c00f0ff34000080fa00000006000600fa00c2
:103f5c0010079800210798001e0090002040900048
:103f6c008080fb00100020000100dd00000f7800b5
:103f7c002e0090000000e000080032001e009000af
:103f8c00900078001e00900010007800100078005f
:103f9c001e00700080087800080037001e0090009a
:103fac00100178001e00900010007800900078003e
:103fbc001e80ea0000806000000978000080fa0092
:103fcc00000006000400fa0010000700008fbe007d
:103fdc001e007800801f7800407b2800801f78002e
:103fec00007c2800801f7800abff0700e687570095
:103ffc001e00be00f04a8800014b88001000200013
:10400c00e04a88000080fa00000006000400fa0074
:10401c0094e0a900904a8000a14a8000008fbe0065
:10402c0094e0a8001e00be000080fa00000006000c
:10403c000000fa000000eb00e04a88000080fa0063
:10404c00000006000000fa009600a9000000eb003a
:10405c00e04a88009600a8000080fa0000000600e4
:10406c000800fa00e04a80000000e0001300320073
:10407c009600a900f04a8000014b8000008fbe0022
:10408c009600a800e1ff0700200798003107980070
:10409c00100a2000010020003e014000ae814800c3
:1040ac002e009000be009000060007000000e0000b
:1040bc00020032008bff0700e2ff07000080fa00cd
:1040cc00000006000a00fa00008fbe0022079800cc
:1040dc00330798002e009000be0090001e01be0019
:1040ec0002005000838058000001eb00420798004a
:1040fc00e00f5000e08f580002003d00100020003f
:10410c00400798004e0090000080fa000000060066
:10411c000000fa00113a8000f00b200000816000d2
:10412c006104200070052000237420008149780070
:10413c008049780082497800416a200091407800db
:10414c0000ccb30000c060000044a000a4e6b7009f
:10415c00e16d20009140780000ccb30000c06000fd
:10416c003040b300dee6b700113a800000042000b6
:10417c000081700061042000700520002374200071
:10418c0081497800804978008249780090012000ac
:10419c004011880000002800001188000040200019
:1041ac00101188008560a9008580a9000080fa00a4
:1041bc00000006000400fa00204798000000eb0005
:1041cc00000f7800040037001e0fe8008038210033
:1041dc009e0f100007003c0023c2bf00624060002d
:1041ec000004e000f8ff3a002e4090000000fb00b5
:1041fc00201188000080fa00000006000200fa007e
:10420c00004f78001e407800eaff07000080fa009b
:10421c00000006000800fa002007980031079800fb
:10422c002e009000000f78000000eb0010079800a3
:10423c00070037001e00780010407800efff0700e1
:10424c001e0090000000e800100798001e0fe80008
:10425c009e0090003e009000808f5000f5ff3900ca
:10426c000080fa00000006000c00fa0030079800ed
:10427c0041079800224f980010002000200798005a
:10428c003e00900090007800110798003e009000ce
:10429c0090007800110798001f0037001e00900056
:1042ac000000a200610060000004e0000400320085
:1042bc00ce0090000000eb00800878000d00370065
:1042cc00ae4890004e00900018000700000f7800d8
:1042dc001e00e00007003a003e00900090007800bd
:1042ec002e0090000080ea00808060003e0090006c
:1042fc00010878001e0090000000d1001007980003
:10430c004e0090000080e800400798002e009000be
:10431c0000004000200798001e0090000000e00004
:10432c00deff3a000080fa00000006000600fa00ea
:10433c0010079800414798000000eb00000f780030
:10434c001e009000100078008000e8001e00900015
:10435c00010878001e009000900078004e409000fc
:10436c000080fb00808f5000050039001e0090007b
:10437c008000eb000108780010002000000f78008e
:10438c001e0078000080fa00000006000400fa000d
:10439c005fff070040002000801f780020002000f5
:1043ac00801f780020002000801f78001000200063
:1043bc00801f7800807d2800801f7800b6fe0700e3
:1043cc00ea8757004bfa07006af907002900070033
:1043dc00904a8000a14a8000008fbe000000370088
:1043ec00804a80000000e00006003200b6fb0700a7
:1043fc009efc07001aff07002cf607000000eb00dc
:10440c00804a880090fb0700904a8000a14a8000f7
:10441c003e015000ae815800300020000100200009
:10442c00800f5100818f5900edff3600904a8000bb
:10443c00a14a8000008fbe00e9ff3700809fbe00bc
:10444c000000fa00904a8000a14a80006100400000
:10445c00e0804800904a8800a14a880010002000a3
:10446c00804a880084e0a9000080fa004f00be005a
:10447c00004006000200fa006000b800904a880074
:10448c00a14a88000000eb00804a880020f420003c
:10449c00000f78000000eb00300888001e00e900d7
:1044ac0060088800000228008008880084e0a900c9
:0c44bc0094e0a8000080fa000000060058
:020000040000fa
:1044c8006209000002000000020000000000000075
:1044d8000a0900004600000000000000640900000e
:1044e8000200000000000000500900000600000063
:1044f800000000005609000006000000020000004d
:104508003b00000000282800000800000a01000005
:10451800000000005c090000060000000000000028
:04452800000000008f
:00000001FF

